:0300000002000EED
:0C000E00787FE4F6D8FD75810B020055E8
:08012E00020A000002080000B3
:0B012300EF1FAC0670011E4C70F622AE
:10011300438901758CFF758AFFD2A9D2AFD28C2295
:03000B000200DC14
:0400DC00C0E0C0D0F0
:1000E000758CFF758AFF0509E50970020508C3953F
:1000F0000BE508950A5004D2A08002C2A0C3E5090E
:0E0100009464E5089400400675080075090037
:05010E00D0D0D0E0326A
:10009A00120113E4F50AF50B7F0A7E00120123050B
:1000AA000BE50B7002050AD39464E50A940040E854
:1000BA00750A00750B64D3E50B9400E50A940040B9
:1000CA00D27F0A7E00120123E50B150B70E8150A90
:0200DA0080E4C0
:10001A0002009AE493A3F8E493A34003F68001F262
:10002A0008DFF48029E493A3F85407240CC8C333E7
:10003A00C4540F4420C8834004F456800146F6DFB6
:10004A00E4800B010204081020408090012EE47E17
:10005A00019360BCA3FF543F30E509541FFEE493AB
:10006A00A360010ECF54C025E060A840B8E493A372
:10007A00FAE493A3F8E493A3C8C582C8CAC583CA9D
:10008A00F0A3C8C582C8CAC583CADFE9DEE780BE55
:0101360000C8
:00000001FF
