:030000000202F702
:0C02F700787FE4F6D8FD75812302010732
:0B03030041444A204E54432052470062
:100107001202C47BFF7A0379037D017F011202513A
:100117007F9C1200978E228F237F0A7E001202AFE8
:10012700750C03AB23AA227D017F021202927FDCAA
:100137001200978E228F237F0A7E001202AF750C62
:1001470003AB23AA227D057F021202927FAC120025
:10015700978E228F237F0A7E001202AF750C03ABA6
:0C01670023AA227D097F0212029280A4CC
:020097008F08D0
:10009900E4F50AF50BC2B5C2B6F5097E007480A86D
:1000A90009088006CEA2E713CE13D8F8FFEF55084A
:1000B90024FF92B4D2B67F0A7E001202AFC2B605FF
:1000C90009E509C3940840D3E4F509D2B67F0A7E4D
:1000D900001202AFC2B630B7147E80E4A8090880C6
:1000E90005CEC313CE13D8F9420BEE420A0509E532
:0D00F90009C3941040D5D2B5E50AFF7E0082
:0101060022D6
:0602E800C2A58F80D2A721
:0802EE007F027EEFDEFEDFFC63
:0102F60022E5
:0A030E00C2A61202E8C2A70202EE26
:10027400CFCDCFCECCCE1200427C007D0A120042FC
:04028400ED2430FF36
:0A028800D2A61202E8C2A70202EE9D
:1002C4007F3812030E7F0C12030E7F0612030E7F7B
:0402D4000102030E12
:1002D800EDBF0103148002243F4480FF12030E2265
:0A031800AC031202D8AF0402028801
:060251008B088A09890AEE
:100257001202D8E4FDAB08AA09A90A8D82758300AA
:0C026700120003FF60061202880D80E9FF
:010273002268
:0C021E007F0AEA24FFFDE434FFFC7E00B0
:08022A008E0D8F0E8C0F8D105C
:100232007F017E00E4FBEBC39510E50F6480F87448
:0E0242008098500AAC0DAD0E1200300B80E813
:01025000228B
:040292008A0A8B0B3E
:100296001202D8AA0CEAD39400400D12021EAC0A30
:0802A600AD0B1202741A80ED89
:0102AE00222D
:100173001202D8C3EA64809480400B7F2B1202885A
:100183008A168B17800E7F2D120288C3E49BF51706
:10019300E49AF516AA15EAD39400400D12021EAC98
:0901A30016AD171202741A80ED6A
:0101AC002230
:0401AD008A1A8B1B04
:1001B1001202D8AA1CEAD3940040297F101202200F
:1001C100AC1AAD1BCFCDCFCECCCE120042EF540F27
:1001D100FEC3940AEE5004243080022437FF120239
:0401E100881A80D127
:0101E50022F7
:0401E6008A1F8B20C1
:1001EA001202D8AA21EAD394004028EA24FFFDE4A7
:1001FA0034FFFC7F027E0012022AAC1FAD20CFCD55
:10020A00CFCECCCE120042EF54012430FF12028826
:03021A001A80D275
:01021D0022BE
:1002AF00EF1FAC0670011E4C600A7D027CEFDCFE76
:0402BF00DDFC80ECF6
:0102C3002218
:10000300BB010CE58229F582E5833AF583E02250B2
:1000130006E92582F8E622BBFE06E92582F8E222FC
:0D002300E58229F582E5833AF583E4932216
:10003000EF8DF0A4A8F0CF8CF0A428CE8DF0A42EE4
:02004000FE229E
:10004200BC000BBE0029EF8DF084FFADF022E4CCA2
:10005200F875F008EF2FFFEE33FEEC33FCEE9DEC6B
:10006200984005FCEE9DFE0FD5F0E9E4CEFD22EDB1
:10007200F8F5F0EE8420D21CFEADF075F008EF2FFB
:10008200FFED33FD4007985006D5F0F222C398FDEC
:050092000FD5F0EA2289
:00000001FF
